{
  "_format": "hh-sol-artifact-1",
  "contractName": "DoubleTransfer",
  "sourceName": "contracts/DoubleTransfer.sol",
  "abi": [
    {
      "inputs": [],
      "stateMutability": "payable",
      "type": "constructor"
    },
    {
      "anonymous": false,
      "inputs": [
        {
          "components": [
            {
              "internalType": "uint256",
              "name": "orderId",
              "type": "uint256"
            },
            {
              "internalType": "uint256",
              "name": "timestamp",
              "type": "uint256"
            },
            {
              "internalType": "address",
              "name": "receiver",
              "type": "address"
            },
            {
              "internalType": "uint256",
              "name": "amount",
              "type": "uint256"
            }
          ],
          "indexed": false,
          "internalType": "struct DoubleTransfer.Order",
          "name": "_orderCancelled",
          "type": "tuple"
        }
      ],
      "name": "cancelOrder",
      "type": "event"
    },
    {
      "anonymous": false,
      "inputs": [
        {
          "indexed": false,
          "internalType": "address",
          "name": "_newReceiver",
          "type": "address"
        }
      ],
      "name": "changeReceiver",
      "type": "event"
    },
    {
      "anonymous": false,
      "inputs": [
        {
          "components": [
            {
              "internalType": "uint256",
              "name": "orderId",
              "type": "uint256"
            },
            {
              "internalType": "uint256",
              "name": "timestamp",
              "type": "uint256"
            },
            {
              "internalType": "address",
              "name": "receiver",
              "type": "address"
            },
            {
              "internalType": "uint256",
              "name": "amount",
              "type": "uint256"
            }
          ],
          "indexed": false,
          "internalType": "struct DoubleTransfer.Order",
          "name": "_orderCompleted",
          "type": "tuple"
        }
      ],
      "name": "confirmOrder",
      "type": "event"
    },
    {
      "anonymous": false,
      "inputs": [
        {
          "indexed": false,
          "internalType": "address",
          "name": "_receiver",
          "type": "address"
        },
        {
          "indexed": false,
          "internalType": "uint256",
          "name": "_currentIndex",
          "type": "uint256"
        }
      ],
      "name": "createOrder",
      "type": "event"
    },
    {
      "inputs": [
        {
          "internalType": "uint256",
          "name": "",
          "type": "uint256"
        }
      ],
      "name": "allOrders",
      "outputs": [
        {
          "internalType": "uint256",
          "name": "orderId",
          "type": "uint256"
        },
        {
          "internalType": "uint256",
          "name": "timestamp",
          "type": "uint256"
        },
        {
          "internalType": "address",
          "name": "receiver",
          "type": "address"
        },
        {
          "internalType": "uint256",
          "name": "amount",
          "type": "uint256"
        }
      ],
      "stateMutability": "view",
      "type": "function"
    },
    {
      "inputs": [
        {
          "internalType": "uint256",
          "name": "_orderId",
          "type": "uint256"
        }
      ],
      "name": "cancelCurrentOrder",
      "outputs": [],
      "stateMutability": "nonpayable",
      "type": "function"
    },
    {
      "inputs": [],
      "name": "close",
      "outputs": [],
      "stateMutability": "nonpayable",
      "type": "function"
    },
    {
      "inputs": [
        {
          "internalType": "uint256",
          "name": "_orderId",
          "type": "uint256"
        }
      ],
      "name": "confirmCurrentOrder",
      "outputs": [],
      "stateMutability": "payable",
      "type": "function"
    },
    {
      "inputs": [
        {
          "internalType": "address",
          "name": "_receiver",
          "type": "address"
        }
      ],
      "name": "createNewOrder",
      "outputs": [],
      "stateMutability": "payable",
      "type": "function"
    },
    {
      "inputs": [],
      "name": "fee",
      "outputs": [
        {
          "internalType": "uint64",
          "name": "",
          "type": "uint64"
        }
      ],
      "stateMutability": "view",
      "type": "function"
    },
    {
      "inputs": [
        {
          "internalType": "uint256",
          "name": "_orderId",
          "type": "uint256"
        },
        {
          "internalType": "address",
          "name": "_newReceiver",
          "type": "address"
        }
      ],
      "name": "modifyCurrentReceiver",
      "outputs": [],
      "stateMutability": "nonpayable",
      "type": "function"
    },
    {
      "inputs": [],
      "name": "owner",
      "outputs": [
        {
          "internalType": "address payable",
          "name": "",
          "type": "address"
        }
      ],
      "stateMutability": "view",
      "type": "function"
    },
    {
      "inputs": [],
      "name": "rechargeFee",
      "outputs": [],
      "stateMutability": "payable",
      "type": "function"
    },
    {
      "inputs": [
        {
          "internalType": "uint64",
          "name": "_newFee",
          "type": "uint64"
        }
      ],
      "name": "setNewFee",
      "outputs": [],
      "stateMutability": "nonpayable",
      "type": "function"
    },
    {
      "inputs": [
        {
          "internalType": "uint256",
          "name": "",
          "type": "uint256"
        }
      ],
      "name": "totalStats",
      "outputs": [
        {
          "internalType": "uint256",
          "name": "",
          "type": "uint256"
        }
      ],
      "stateMutability": "view",
      "type": "function"
    },
    {
      "inputs": [],
      "name": "viewAllOrderIdsOfAddress",
      "outputs": [
        {
          "internalType": "uint256[]",
          "name": "",
          "type": "uint256[]"
        }
      ],
      "stateMutability": "view",
      "type": "function"
    },
    {
      "inputs": [],
      "name": "viewAvailableFee",
      "outputs": [
        {
          "internalType": "uint256",
          "name": "",
          "type": "uint256"
        }
      ],
      "stateMutability": "view",
      "type": "function"
    },
    {
      "inputs": [],
      "name": "viewCurrentFee",
      "outputs": [
        {
          "internalType": "uint256",
          "name": "",
          "type": "uint256"
        }
      ],
      "stateMutability": "view",
      "type": "function"
    },
    {
      "inputs": [
        {
          "internalType": "uint256",
          "name": "_orderId",
          "type": "uint256"
        }
      ],
      "name": "viewOrder",
      "outputs": [
        {
          "components": [
            {
              "internalType": "uint256",
              "name": "orderId",
              "type": "uint256"
            },
            {
              "internalType": "uint256",
              "name": "timestamp",
              "type": "uint256"
            },
            {
              "internalType": "address",
              "name": "receiver",
              "type": "address"
            },
            {
              "internalType": "uint256",
              "name": "amount",
              "type": "uint256"
            }
          ],
          "internalType": "struct DoubleTransfer.Order",
          "name": "",
          "type": "tuple"
        }
      ],
      "stateMutability": "view",
      "type": "function"
    },
    {
      "inputs": [
        {
          "internalType": "uint256",
          "name": "_orderId",
          "type": "uint256"
        }
      ],
      "name": "viewOrderSender",
      "outputs": [
        {
          "internalType": "address",
          "name": "",
          "type": "address"
        }
      ],
      "stateMutability": "view",
      "type": "function"
    },
    {
      "inputs": [
        {
          "internalType": "uint256",
          "name": "_orderId",
          "type": "uint256"
        }
      ],
      "name": "viewOrderStatus",
      "outputs": [
        {
          "internalType": "enum DoubleTransfer.Status",
          "name": "",
          "type": "uint8"
        }
      ],
      "stateMutability": "view",
      "type": "function"
    },
    {
      "inputs": [],
      "name": "viewTotalCurrentStats",
      "outputs": [
        {
          "internalType": "uint256[2]",
          "name": "",
          "type": "uint256[2]"
        }
      ],
      "stateMutability": "view",
      "type": "function"
    },
    {
      "inputs": [],
      "name": "viewUserCurrentStats",
      "outputs": [
        {
          "internalType": "uint256[2]",
          "name": "",
          "type": "uint256[2]"
        }
      ],
      "stateMutability": "view",
      "type": "function"
    },
    {
      "inputs": [],
      "name": "withdrawFee",
      "outputs": [],
      "stateMutability": "payable",
      "type": "function"
    },
    {
      "stateMutability": "payable",
      "type": "receive"
    }
  ],
  "bytecode": "0x60806040526601c6bf52634000600060146101000a81548167ffffffffffffffff021916908367ffffffffffffffff160217905550336000806101000a81548173ffffffffffffffffffffffffffffffffffffffff021916908373ffffffffffffffffffffffffffffffffffffffff160217905550612405806100836000396000f3fe6080604052600436106101235760003560e01c80639b5573d9116100a0578063d20a67fe11610064578063d20a67fe146103a3578063ddca3f43146103ce578063e50db149146103f9578063e941fa7814610424578063eb5945e41461042e5761012a565b80639b5573d9146102cb578063bcac30c3146102d5578063bd59c9b014610312578063bfb3fb401461034f578063d12fade11461037a5761012a565b806343d726d6116100e757806343d726d614610207578063464583521461021e5780637c38d6631461023a578063834816da146102775780638da5cb5b146102a05761012a565b80631178d69e1461012f578063130fa3fa1461015a5780632418e3ac146101855780633d9cba36146101c257806342633be2146101eb5761012a565b3661012a57005b600080fd5b34801561013b57600080fd5b5061014461046e565b6040516101519190611a32565b60405180910390f35b34801561016657600080fd5b5061016f6104f6565b60405161017c9190611a32565b60405180910390f35b34801561019157600080fd5b506101ac60048036038101906101a79190611a7e565b610540565b6040516101b99190611aec565b60405180910390f35b3480156101ce57600080fd5b506101e960048036038101906101e49190611b33565b61057d565b005b61020560048036038101906102009190611b73565b610767565b005b34801561021357600080fd5b5061021c610ac1565b005b61023860048036038101906102339190611a7e565b610bcd565b005b34801561024657600080fd5b50610261600480360381019061025c9190611a7e565b610f3e565b60405161026e9190611c04565b60405180910390f35b34801561028357600080fd5b5061029e60048036038101906102999190611c5f565b610fee565b005b3480156102ac57600080fd5b506102b56110df565b6040516102c29190611cad565b60405180910390f35b6102d3611103565b005b3480156102e157600080fd5b506102fc60048036038101906102f79190611a7e565b611240565b6040516103099190611d3f565b60405180910390f35b34801561031e57600080fd5b5061033960048036038101906103349190611a7e565b61126a565b6040516103469190611d69565b60405180910390f35b34801561035b57600080fd5b50610364611285565b6040516103719190611d69565b60405180910390f35b34801561038657600080fd5b506103a1600480360381019061039c9190611a7e565b6112c4565b005b3480156103af57600080fd5b506103b86115dd565b6040516103c59190611e1b565b60405180910390f35b3480156103da57600080fd5b506103e3611704565b6040516103f09190611e4c565b60405180910390f35b34801561040557600080fd5b5061040e61171e565b60405161041b9190611d69565b60405180910390f35b61042c611745565b005b34801561043a57600080fd5b5061045560048036038101906104509190611a7e565b6118bd565b6040516104659493929190611e67565b60405180910390f35b61047661191d565b600560003373ffffffffffffffffffffffffffffffffffffffff1673ffffffffffffffffffffffffffffffffffffffff1681526020019081526020016000206002806020026040519081016040528092919082600280156104ec576020028201915b8154815260200190600101908083116104d8575b5050505050905090565b6104fe61191d565b60028080602002604051908101604052809291908260028015610536576020028201915b815481526020019060010190808311610522575b5050505050905090565b60006007600083815260200190815260200160002060009054906101000a900473ffffffffffffffffffffffffffffffffffffffff169050919050565b813373ffffffffffffffffffffffffffffffffffffffff166007600083815260200190815260200160002060009054906101000a900473ffffffffffffffffffffffffffffffffffffffff1673ffffffffffffffffffffffffffffffffffffffff161461061f576040517f08c379a000000000000000000000000000000000000000000000000000000000815260040161061690611f09565b60405180910390fd5b8260028081111561063357610632611cc8565b5b6006600083815260200190815260200160002060009054906101000a900460ff16600281111561066657610665611cc8565b5b1415806106b857506000600281111561068257610681611cc8565b5b6006600083815260200190815260200160002060009054906101000a900460ff1660028111156106b5576106b4611cc8565b5b14155b6106f7576040517f08c379a00000000000000000000000000000000000000000000000000000000081526004016106ee90611f9b565b60405180910390fd5b60006004858154811061070d5761070c611fbb565b5b90600052602060002090600402019050838160020160006101000a81548173ffffffffffffffffffffffffffffffffffffffff021916908373ffffffffffffffffffffffffffffffffffffffff1602179055505050505050565b600060149054906101000a900467ffffffffffffffff1667ffffffffffffffff1634116107c9576040517f08c379a00000000000000000000000000000000000000000000000000000000081526004016107c09061205c565b60405180910390fd5b60003073ffffffffffffffffffffffffffffffffffffffff16346040516107ef906120ad565b60006040518083038185875af1925050503d806000811461082c576040519150601f19603f3d011682016040523d82523d6000602084013e610831565b606091505b5050905080610875576040517f08c379a000000000000000000000000000000000000000000000000000000000815260040161086c9061210e565b60405180910390fd5b60008060149054906101000a900467ffffffffffffffff1667ffffffffffffffff16346108a2919061215d565b905080600160008282546108b69190612191565b925050819055506000604051806080016040528060048054905081526020014281526020018573ffffffffffffffffffffffffffffffffffffffff1681526020018381525090506004819080600181540180825580915050600190039060005260206000209060040201600090919091909150600082015181600001556020820151816001015560408201518160020160006101000a81548173ffffffffffffffffffffffffffffffffffffffff021916908373ffffffffffffffffffffffffffffffffffffffff1602179055506060820151816003015550506001600660008360000151815260200190815260200160002060006101000a81548160ff021916908360028111156109cb576109ca611cc8565b5b021790555033600760008360000151815260200190815260200160002060006101000a81548173ffffffffffffffffffffffffffffffffffffffff021916908373ffffffffffffffffffffffffffffffffffffffff1602179055506002600060028110610a3b57610a3a611fbb565b5b016000815480929190610a4d906121c5565b9190505550600560003373ffffffffffffffffffffffffffffffffffffffff1673ffffffffffffffffffffffffffffffffffffffff168152602001908152602001600020600060028110610aa457610aa3611fbb565b5b016000815480929190610ab6906121c5565b919050555050505050565b60008054906101000a900473ffffffffffffffffffffffffffffffffffffffff1673ffffffffffffffffffffffffffffffffffffffff163373ffffffffffffffffffffffffffffffffffffffff1614610b4f576040517f08c379a0000000000000000000000000000000000000000000000000000000008152600401610b4690612259565b60405180910390fd5b600060015414610b94576040517f08c379a0000000000000000000000000000000000000000000000000000000008152600401610b8b906122eb565b60405180910390fd5b60008054906101000a900473ffffffffffffffffffffffffffffffffffffffff1673ffffffffffffffffffffffffffffffffffffffff16ff5b803373ffffffffffffffffffffffffffffffffffffffff166007600083815260200190815260200160002060009054906101000a900473ffffffffffffffffffffffffffffffffffffffff1673ffffffffffffffffffffffffffffffffffffffff1614610c6f576040517f08c379a0000000000000000000000000000000000000000000000000000000008152600401610c6690611f09565b60405180910390fd5b81600280811115610c8357610c82611cc8565b5b6006600083815260200190815260200160002060009054906101000a900460ff166002811115610cb657610cb5611cc8565b5b141580610d08575060006002811115610cd257610cd1611cc8565b5b6006600083815260200190815260200160002060009054906101000a900460ff166002811115610d0557610d04611cc8565b5b14155b610d47576040517f08c379a0000000000000000000000000000000000000000000000000000000008152600401610d3e90611f9b565b60405180910390fd5b600060048481548110610d5d57610d5c611fbb565b5b9060005260206000209060040201905060008160020160009054906101000a900473ffffffffffffffffffffffffffffffffffffffff1673ffffffffffffffffffffffffffffffffffffffff168260030154604051610dbb906120ad565b60006040518083038185875af1925050503d8060008114610df8576040519150601f19603f3d011682016040523d82523d6000602084013e610dfd565b606091505b5050905080610e41576040517f08c379a0000000000000000000000000000000000000000000000000000000008152600401610e389061210e565b60405180910390fd5b60026006600087815260200190815260200160002060006101000a81548160ff02191690836002811115610e7857610e77611cc8565b5b02179055506000826003015490508060016000828254610e98919061215d565b92505081905550806002600160028110610eb557610eb4611fbb565b5b016000828254610ec59190612191565b9250508190555080600560003373ffffffffffffffffffffffffffffffffffffffff1673ffffffffffffffffffffffffffffffffffffffff168152602001908152602001600020600160028110610f1f57610f1e611fbb565b5b016000828254610f2f9190612191565b92505081905550505050505050565b610f4661193f565b60048281548110610f5a57610f59611fbb565b5b906000526020600020906004020160405180608001604052908160008201548152602001600182015481526020016002820160009054906101000a900473ffffffffffffffffffffffffffffffffffffffff1673ffffffffffffffffffffffffffffffffffffffff1673ffffffffffffffffffffffffffffffffffffffff1681526020016003820154815250509050919050565b60008054906101000a900473ffffffffffffffffffffffffffffffffffffffff1673ffffffffffffffffffffffffffffffffffffffff163373ffffffffffffffffffffffffffffffffffffffff161461107c576040517f08c379a000000000000000000000000000000000000000000000000000000000815260040161107390612259565b60405180910390fd5b600060149054906101000a900467ffffffffffffffff1667ffffffffffffffff168167ffffffffffffffff1610156110b357600080fd5b80600060146101000a81548167ffffffffffffffff021916908367ffffffffffffffff16021790555050565b60008054906101000a900473ffffffffffffffffffffffffffffffffffffffff1681565b60008054906101000a900473ffffffffffffffffffffffffffffffffffffffff1673ffffffffffffffffffffffffffffffffffffffff163373ffffffffffffffffffffffffffffffffffffffff1614611191576040517f08c379a000000000000000000000000000000000000000000000000000000000815260040161118890612259565b60405180910390fd5b60003073ffffffffffffffffffffffffffffffffffffffff16346040516111b7906120ad565b60006040518083038185875af1925050503d80600081146111f4576040519150601f19603f3d011682016040523d82523d6000602084013e6111f9565b606091505b505090508061123d576040517f08c379a00000000000000000000000000000000000000000000000000000000081526004016112349061210e565b60405180910390fd5b50565b60006006600083815260200190815260200160002060009054906101000a900460ff169050919050565b6002816002811061127a57600080fd5b016000915090505481565b60008060149054906101000a900467ffffffffffffffff1667ffffffffffffffff16600154476112b5919061215d565b6112bf919061215d565b905090565b803373ffffffffffffffffffffffffffffffffffffffff166007600083815260200190815260200160002060009054906101000a900473ffffffffffffffffffffffffffffffffffffffff1673ffffffffffffffffffffffffffffffffffffffff1614611366576040517f08c379a000000000000000000000000000000000000000000000000000000000815260040161135d90611f09565b60405180910390fd5b8160028081111561137a57611379611cc8565b5b6006600083815260200190815260200160002060009054906101000a900460ff1660028111156113ad576113ac611cc8565b5b1415806113ff5750600060028111156113c9576113c8611cc8565b5b6006600083815260200190815260200160002060009054906101000a900460ff1660028111156113fc576113fb611cc8565b5b14155b61143e576040517f08c379a000000000000000000000000000000000000000000000000000000000815260040161143590611f9b565b60405180910390fd5b60006004848154811061145457611453611fbb565b5b9060005260206000209060040201905060003373ffffffffffffffffffffffffffffffffffffffff16826003015460405161148e906120ad565b60006040518083038185875af1925050503d80600081146114cb576040519150601f19603f3d011682016040523d82523d6000602084013e6114d0565b606091505b5050905080611514576040517f08c379a000000000000000000000000000000000000000000000000000000000815260040161150b9061210e565b60405180910390fd5b60006006600087815260200190815260200160002060006101000a81548160ff0219169083600281111561154b5761154a611cc8565b5b0217905550816003015460016000828254611566919061215d565b92505081905550600560003373ffffffffffffffffffffffffffffffffffffffff1673ffffffffffffffffffffffffffffffffffffffff1681526020019081526020016000206000600281106115bf576115be611fbb565b5b0160008154809291906115d19061230b565b91905055505050505050565b6060600060026000600281106115f6576115f5611fbb565b5b015467ffffffffffffffff81111561161157611610612334565b5b60405190808252806020026020018201604052801561163f5781602001602082028036833780820191505090505b5090506000805b6004805490508110156116fb573373ffffffffffffffffffffffffffffffffffffffff166007600083815260200190815260200160002060009054906101000a900473ffffffffffffffffffffffffffffffffffffffff1673ffffffffffffffffffffffffffffffffffffffff16036116e857808383815181106116cd576116cc611fbb565b5b60200260200101818152505081806116e4906121c5565b9250505b80806116f3906121c5565b915050611646565b50819250505090565b600060149054906101000a900467ffffffffffffffff1681565b60008060149054906101000a900467ffffffffffffffff1667ffffffffffffffff16905090565b60008054906101000a900473ffffffffffffffffffffffffffffffffffffffff1673ffffffffffffffffffffffffffffffffffffffff163373ffffffffffffffffffffffffffffffffffffffff16146117d3576040517f08c379a00000000000000000000000000000000000000000000000000000000081526004016117ca90612259565b60405180910390fd5b60006117dd611285565b905060008111611822576040517f08c379a0000000000000000000000000000000000000000000000000000000008152600401611819906123af565b60405180910390fd5b60008060009054906101000a900473ffffffffffffffffffffffffffffffffffffffff1673ffffffffffffffffffffffffffffffffffffffff1682604051611869906120ad565b60006040518083038185875af1925050503d80600081146118a6576040519150601f19603f3d011682016040523d82523d6000602084013e6118ab565b606091505b50509050806118b957600080fd5b5050565b600481815481106118cd57600080fd5b90600052602060002090600402016000915090508060000154908060010154908060020160009054906101000a900473ffffffffffffffffffffffffffffffffffffffff16908060030154905084565b6040518060400160405280600290602082028036833780820191505090505090565b60405180608001604052806000815260200160008152602001600073ffffffffffffffffffffffffffffffffffffffff168152602001600081525090565b600060029050919050565b600081905092915050565b6000819050919050565b6000819050919050565b6119b08161199d565b82525050565b60006119c283836119a7565b60208301905092915050565b6000602082019050919050565b6119e48161197d565b6119ee8184611988565b92506119f982611993565b8060005b83811015611a2a578151611a1187826119b6565b9650611a1c836119ce565b9250506001810190506119fd565b505050505050565b6000604082019050611a4760008301846119db565b92915050565b600080fd5b611a5b8161199d565b8114611a6657600080fd5b50565b600081359050611a7881611a52565b92915050565b600060208284031215611a9457611a93611a4d565b5b6000611aa284828501611a69565b91505092915050565b600073ffffffffffffffffffffffffffffffffffffffff82169050919050565b6000611ad682611aab565b9050919050565b611ae681611acb565b82525050565b6000602082019050611b016000830184611add565b92915050565b611b1081611acb565b8114611b1b57600080fd5b50565b600081359050611b2d81611b07565b92915050565b60008060408385031215611b4a57611b49611a4d565b5b6000611b5885828601611a69565b9250506020611b6985828601611b1e565b9150509250929050565b600060208284031215611b8957611b88611a4d565b5b6000611b9784828501611b1e565b91505092915050565b611ba981611acb565b82525050565b608082016000820151611bc560008501826119a7565b506020820151611bd860208501826119a7565b506040820151611beb6040850182611ba0565b506060820151611bfe60608501826119a7565b50505050565b6000608082019050611c196000830184611baf565b92915050565b600067ffffffffffffffff82169050919050565b611c3c81611c1f565b8114611c4757600080fd5b50565b600081359050611c5981611c33565b92915050565b600060208284031215611c7557611c74611a4d565b5b6000611c8384828501611c4a565b91505092915050565b6000611c9782611aab565b9050919050565b611ca781611c8c565b82525050565b6000602082019050611cc26000830184611c9e565b92915050565b7f4e487b7100000000000000000000000000000000000000000000000000000000600052602160045260246000fd5b60038110611d0857611d07611cc8565b5b50565b6000819050611d1982611cf7565b919050565b6000611d2982611d0b565b9050919050565b611d3981611d1e565b82525050565b6000602082019050611d546000830184611d30565b92915050565b611d638161199d565b82525050565b6000602082019050611d7e6000830184611d5a565b92915050565b600081519050919050565b600082825260208201905092915050565b6000819050602082019050919050565b6000602082019050919050565b6000611dc882611d84565b611dd28185611d8f565b9350611ddd83611da0565b8060005b83811015611e0e578151611df588826119b6565b9750611e0083611db0565b925050600181019050611de1565b5085935050505092915050565b60006020820190508181036000830152611e358184611dbd565b905092915050565b611e4681611c1f565b82525050565b6000602082019050611e616000830184611e3d565b92915050565b6000608082019050611e7c6000830187611d5a565b611e896020830186611d5a565b611e966040830185611add565b611ea36060830184611d5a565b95945050505050565b600082825260208201905092915050565b7f596f7520617265206e6f74207468652073656e64657200000000000000000000600082015250565b6000611ef3601683611eac565b9150611efe82611ebd565b602082019050919050565b60006020820190508181036000830152611f2281611ee6565b9050919050565b7f4f726465722069732065697468657220636f6d706c65746564206f722063616e60008201527f63656c6c65640000000000000000000000000000000000000000000000000000602082015250565b6000611f85602683611eac565b9150611f9082611f29565b604082019050919050565b60006020820190508181036000830152611fb481611f78565b9050919050565b7f4e487b7100000000000000000000000000000000000000000000000000000000600052603260045260246000fd5b7f4d7573742073656e6420656e6f7567682045746865722077697468207468652060008201527f66756e6374696f6e2063616c6c00000000000000000000000000000000000000602082015250565b6000612046602d83611eac565b915061205182611fea565b604082019050919050565b6000602082019050818103600083015261207581612039565b9050919050565b600081905092915050565b50565b600061209760008361207c565b91506120a282612087565b600082019050919050565b60006120b88261208a565b9150819050919050565b7f4572726f7220696e207472616e73666572000000000000000000000000000000600082015250565b60006120f8601183611eac565b9150612103826120c2565b602082019050919050565b60006020820190508181036000830152612127816120eb565b9050919050565b7f4e487b7100000000000000000000000000000000000000000000000000000000600052601160045260246000fd5b60006121688261199d565b91506121738361199d565b925082820390508181111561218b5761218a61212e565b5b92915050565b600061219c8261199d565b91506121a78361199d565b92508282019050808211156121bf576121be61212e565b5b92915050565b60006121d08261199d565b91507fffffffffffffffffffffffffffffffffffffffffffffffffffffffffffffffff82036122025761220161212e565b5b600182019050919050565b7f596f7520617265206e6f7420746865206f776e65720000000000000000000000600082015250565b6000612243601583611eac565b915061224e8261220d565b602082019050919050565b6000602082019050818103600083015261227281612236565b9050919050565b7f5468657265206973207374696c6c2075736572732720657363726f776564206860008201527f6572650000000000000000000000000000000000000000000000000000000000602082015250565b60006122d5602383611eac565b91506122e082612279565b604082019050919050565b60006020820190508181036000830152612304816122c8565b9050919050565b60006123168261199d565b9150600082036123295761232861212e565b5b600182039050919050565b7f4e487b7100000000000000000000000000000000000000000000000000000000600052604160045260246000fd5b7f4e6f7420656e6f7567682066656520746f207769746864726177000000000000600082015250565b6000612399601a83611eac565b91506123a482612363565b602082019050919050565b600060208201905081810360008301526123c88161238c565b905091905056fea26469706673582212207946f1b0b9b38e364c9e6bf14172e7e20f5d73aade57ee75427f1c8372bfd72964736f6c63430008110033",
  "linkReferences": {},
  "deployedLinkReferences": {}
}